{"abi":[{"type":"function","name":"MAX_ANSWER_LENGTH","inputs":[],"outputs":[{"name":"","type":"uint256","internalType":"uint256"}],"stateMutability":"view"},{"type":"function","name":"MAX_SUBMISSIONS","inputs":[],"outputs":[{"name":"","type":"uint256","internalType":"uint256"}],"stateMutability":"view"},{"type":"function","name":"bounties","inputs":[{"name":"","type":"uint256","internalType":"uint256"}],"outputs":[{"name":"owner","type":"address","internalType":"address"},{"name":"title","type":"string","internalType":"string"},{"name":"rubric","type":"string","internalType":"string"},{"name":"reward","type":"uint256","internalType":"uint256"},{"name":"deadline","type":"uint256","internalType":"uint256"},{"name":"judged","type":"bool","internalType":"bool"},{"name":"finalized","type":"bool","internalType":"bool"},{"name":"aiReview","type":"bytes","internalType":"bytes"},{"name":"winnerIndex","type":"uint256","internalType":"uint256"}],"stateMutability":"view"},{"type":"function","name":"createBounty","inputs":[{"name":"title","type":"string","internalType":"string"},{"name":"rubric","type":"string","internalType":"string"},{"name":"deadline","type":"uint256","internalType":"uint256"}],"outputs":[{"name":"bountyId","type":"uint256","internalType":"uint256"}],"stateMutability":"payable"},{"type":"function","name":"finalizeWinner","inputs":[{"name":"bountyId","type":"uint256","internalType":"uint256"},{"name":"winnerIndex","type":"uint256","internalType":"uint256"}],"outputs":[],"stateMutability":"nonpayable"},{"type":"function","name":"getBounty","inputs":[{"name":"bountyId","type":"uint256","internalType":"uint256"}],"outputs":[{"name":"owner","type":"address","internalType":"address"},{"name":"title","type":"string","internalType":"string"},{"name":"rubric","type":"string","internalType":"string"},{"name":"reward","type":"uint256","internalType":"uint256"},{"name":"deadline","type":"uint256","internalType":"uint256"},{"name":"judged","type":"bool","internalType":"bool"},{"name":"finalized","type":"bool","internalType":"bool"},{"name":"submissionCount","type":"uint256","internalType":"uint256"},{"name":"winnerIndex","type":"uint256","internalType":"uint256"},{"name":"aiReview","type":"bytes","internalType":"bytes"}],"stateMutability":"view"},{"type":"function","name":"getSubmission","inputs":[{"name":"bountyId","type":"uint256","internalType":"uint256"},{"name":"index","type":"uint256","internalType":"uint256"}],"outputs":[{"name":"submitter","type":"address","internalType":"address"},{"name":"answer","type":"string","internalType":"string"}],"stateMutability":"view"},{"type":"function","name":"judgeAll","inputs":[{"name":"bountyId","type":"uint256","internalType":"uint256"},{"name":"llmInput","type":"bytes","internalType":"bytes"}],"outputs":[],"stateMutability":"nonpayable"},{"type":"function","name":"nextBountyId","inputs":[],"outputs":[{"name":"","type":"uint256","internalType":"uint256"}],"stateMutability":"view"},{"type":"function","name":"submitAnswer","inputs":[{"name":"bountyId","type":"uint256","internalType":"uint256"},{"name":"answer","type":"string","internalType":"string"}],"outputs":[],"stateMutability":"nonpayable"},{"type":"event","name":"AllAnswersJudged","inputs":[{"name":"bountyId","type":"uint256","indexed":true,"internalType":"uint256"},{"name":"aiReview","type":"bytes","indexed":false,"internalType":"bytes"}],"anonymous":false},{"type":"event","name":"AnswerSubmitted","inputs":[{"name":"bountyId","type":"uint256","indexed":true,"internalType":"uint256"},{"name":"submissionIndex","type":"uint256","indexed":true,"internalType":"uint256"},{"name":"submitter","type":"address","indexed":true,"internalType":"address"}],"anonymous":false},{"type":"event","name":"BountyCreated","inputs":[{"name":"bountyId","type":"uint256","indexed":true,"internalType":"uint256"},{"name":"owner","type":"address","indexed":true,"internalType":"address"},{"name":"title","type":"string","indexed":false,"internalType":"string"},{"name":"reward","type":"uint256","indexed":false,"internalType":"uint256"},{"name":"deadline","type":"uint256","indexed":false,"internalType":"uint256"}],"anonymous":false},{"type":"event","name":"WinnerFinalized","inputs":[{"name":"bountyId","type":"uint256","indexed":true,"internalType":"uint256"},{"name":"winnerIndex","type":"uint256","indexed":true,"internalType":"uint256"},{"name":"winner","type":"address","indexed":true,"internalType":"address"},{"name":"reward","type":"uint256","indexed":false,"internalType":"uint256"}],"anonymous":false}],"bytecode":{"object":"0x608080604052346100405760015f81905580546001600160a01b03191673532f0df0896f353d8c3dd8cc134e8129da2a394817905561128f90816100458239f35b5f80fdfe60806040526004361015610011575f80fd5b5f3560e01c806301fa3bec146100b45780632bfa7d60146100af5780635a7722f1146100aa5780638e789683146100a5578063b7ed7071146100a0578063d8964ee91461009b578063dc2f874414610096578063ee8c4bbf14610091578063fd14fad41461008c5763fd3a832914610087575f80fd5b6109ee565b6109d2565b61091f565b610811565b610587565b6104c8565b610442565b61032c565b6101ee565b34610188576101566100c5366101ba565b5f838152600260205260409020549193916100ea906001600160a01b03161515610a0a565b825f52600260205261014b600860405f2061011a60ff600583015461011182821615610a49565b841c1615610a86565b0194610129600a875410610ac6565b6101376107d0841115610b09565b61013f610b47565b338152925b3691610b83565b602082015283610c35565b610161339254610d81565b907f2193ba3aacf922823442f915857f71c32e5649130b71498a48dad0ce65f974905f80a4005b5f80fd5b9181601f840112156101885782359167ffffffffffffffff8311610188576020838186019501011161018857565b90604060031983011261018857600435916024359067ffffffffffffffff8211610188576101ea9160040161018c565b9091565b60603660031901126101885767ffffffffffffffff6004358181116101885761021b90369060040161018c565b916024359081116101885761023490369060040161018c565b604435939134156102f5576102f1946102b8946102cb60077f4e9ff8debce04524518777fdf120513b8f7e1f434da1099fd190d1aae0d495b6945f5498899761027c89610d94565b5f55610290895f52600260205260405f2090565b80546001600160a01b03191633178155926102af8b8860018701610da2565b60028401610da2565b346003820155846004820155015f199055565b6102de6040519283923397349185610e65565b0390a36040519081529081906020820190565b0390f35b60405162461bcd60e51b815260206004820152600f60248201526e1c995dd85c99081c995c5d5a5c9959608a1b6044820152606490fd5b34610188576040366003190112610188576004355f818152600260205260409020546001600160a01b0391602435916103689084161515610a0a565b805f5260026020526103818360405f2054163314610e9a565b805f5260026020527f2eb0120759ae6dd1505f3f092609ec7e75433fb2401ad648ebeb5bd4bd55e5b661043d60405f20946103e4600587016103d560ff82546103cb828216610ed9565b60081c1615610a86565b805461ff001916610100179055565b846007870155600361040a6103fc8760088a01610bb9565b50546001600160a01b031690565b9601955f87549755169461042d5f808080858b5af1610427610f16565b50610f45565b6040519081529081906020820190565b0390a4005b34610188575f366003190112610188576020604051600a8152f35b5f5b83811061046e5750505f910152565b818101518382015260200161045f565b906020916104978151809281855285808601910161045d565b601f01601f1916010190565b6001600160a01b0390911681526040602082018190526104c59291019061047e565b90565b3461018857604080600319360112610188576004355f8181526002602052829020546001600160a01b0391602435916105049084161515610a0a565b5f5260026020526008835f20018054821015610553579261054961052d6102f193600196610bb9565b509384541693610542835180978193016106bc565b0385610761565b51928392836104a3565b835162461bcd60e51b815260206004820152600d60248201526c0d2dcecc2d8d2c840d2dcc8caf609b1b6044820152606490fd5b346101885760067fb51288ae628dca25614026175dc22a78631acc1a31f034c68c3fa241ca0fd05c61067f6106606106736105c1366101ba565b93919690875f5260026020526105fd60018060a01b036105e88160405f2054161515610a0a565b895f52600260205260405f2054163314610e9a565b875f52600260205261066d61065161064261063d60405f2094600586019961062e60ff8c546103cb82821615610a49565b61014460088801541515610f82565b6111e7565b60208082518301019101611082565b50905081989296919615611105565b805460ff19166001179055565b01611135565b604051918291826111d6565b0390a2005b90600182811c921680156106b2575b602083101461069e57565b634e487b7160e01b5f52602260045260245ffd5b91607f1691610693565b80545f93926106ca82610684565b918282526020936001916001811690815f1461072e57506001146106f0575b5050505050565b90939495505f92919252835f2092845f945b83861061071a57505050500101905f808080806106e9565b805485870183015294019385908201610702565b60ff19168685015250505090151560051b010191505f808080806106e9565b634e487b7160e01b5f52604160045260245ffd5b90601f8019910116810190811067ffffffffffffffff82111761078357604052565b61074d565b906107a361079c92604051938480926106bc565b0383610761565b565b99989793949061010097936107d861080c98946107e6938e6101209160018060a01b03168152816020820152019061047e565b8c810360408e01529061047e565b9460608b015260808a0152151560a0890152151560c088015286820360e088015261047e565b930152565b34610188576020366003190112610188576004355f52600260205260405f2060018060a01b038154166102f1604051916108598361085281600188016106bc565b0384610761565b604051936108758561086e81600285016106bc565b0386610761565b600381015491600482015490600583015491600761089560068601610788565b9401549460405198899860ff808760081c169616948a6107a5565b96939895926108df6104c59b9996936108ed936101409060018060a01b03168b528060208c01528a019061047e565b9088820360408a015261047e565b9760608701526080860152151560a0850152151560c084015260e083015261010082015261012081840391015261047e565b34610188576020366003190112610188576004355f818152600260205260409020546001600160a01b0391906109589083161515610a0a565b5f52600260205260405f20908154166102f160038301546004840154926005850154600886015490600787015492604051966109a28861099b8160018d016106bc565b0389610761565b6109ba60066109b360028c01610788565b9a01610788565b95604051998a9960ff808760081c169616948b6108b0565b34610188575f3660031901126101885760205f54604051908152f35b34610188575f3660031901126101885760206040516107d08152f35b15610a1157565b60405162461bcd60e51b815260206004820152601060248201526f189bdd5b9d1e481b9bdd08199bdd5b9960821b6044820152606490fd5b15610a5057565b60405162461bcd60e51b815260206004820152600e60248201526d185b1c9958591e481a9d5919d95960921b6044820152606490fd5b15610a8d57565b60405162461bcd60e51b8152602060048201526011602482015270185b1c9958591e48199a5b985b1a5e9959607a1b6044820152606490fd5b15610acd57565b60405162461bcd60e51b8152602060048201526014602482015273746f6f206d616e79207375626d697373696f6e7360601b6044820152606490fd5b15610b1057565b60405162461bcd60e51b815260206004820152600f60248201526e616e7377657220746f6f206c6f6e6760881b6044820152606490fd5b604051906040820182811067ffffffffffffffff82111761078357604052565b67ffffffffffffffff811161078357601f01601f191660200190565b929192610b8f82610b67565b91610b9d6040519384610761565b829481845281830111610188578281602093845f960137010152565b8054821015610bd2575f5260205f209060011b01905f90565b634e487b7160e01b5f52603260045260245ffd5b601f8211610bf357505050565b5f5260205f20906020601f840160051c83019310610c2b575b601f0160051c01905b818110610c20575050565b5f8155600101610c15565b9091508190610c0c565b919082546801000000000000000081101561078357610c5c90600194600182018155610bb9565b610d5a57815181546001600160a01b0319166001600160a01b0391909116178155600101906020809101519384519167ffffffffffffffff831161078357610cae83610ca88654610684565b86610be6565b602091601f8411600114610cf05750508190610ce19394955f92610ce5575b50508160011b915f199060031b1c19161790565b9055565b015190505f80610ccd565b95601f92919219841696610d07865f5260205f2090565b935f915b898310610d435750505083600195969710610d2b575b505050811b019055565b01515f1960f88460031b161c191690555f8080610d21565b838501518655948501949381019391810191610d0b565b634e487b7160e01b5f525f60045260245ffd5b634e487b7160e01b5f52601160045260245ffd5b5f19810191908211610d8f57565b610d6d565b5f198114610d8f5760010190565b90929167ffffffffffffffff811161078357610dc881610dc28454610684565b84610be6565b5f601f8211600114610e01578190610ce19394955f92610df65750508160011b915f199060031b1c19161790565b013590505f80610ccd565b601f19821694610e14845f5260205f2090565b915f5b878110610e4d575083600195969710610e3457505050811b019055565b01355f19600384901b60f8161c191690555f8080610d21565b90926020600181928686013581550194019101610e17565b90826040936080929796959760608552816060860152838501375f828285010152601f80199101168201019460208201520152565b15610ea157565b60405162461bcd60e51b815260206004820152601060248201526f3737ba103137bab73a3c9037bbb732b960811b6044820152606490fd5b15610ee057565b60405162461bcd60e51b815260206004820152600e60248201526d1b9bdd081a9d5919d959081e595d60921b6044820152606490fd5b3d15610f40573d90610f2782610b67565b91610f356040519384610761565b82523d5f602084013e565b606090565b15610f4c57565b60405162461bcd60e51b815260206004820152600e60248201526d1c185e5b595b9d0819985a5b195960921b6044820152606490fd5b15610f8957565b60405162461bcd60e51b815260206004820152600e60248201526d6e6f207375626d697373696f6e7360901b6044820152606490fd5b81601f82011215610188578051610fd581610b67565b92610fe36040519485610761565b81845260208284010111610188576104c5916020808501910161045d565b919091606081840312610188576040519067ffffffffffffffff90606083018281118482101761078357604052829481518381116101885781611045918401610fbf565b84526020820151838111610188578161105f918401610fbf565b602085015260408201519283116101885760409261107d9201610fbf565b910152565b9060a0828203126101885781518015158103610188579260208301519067ffffffffffffffff9182811161018857836110bc918601610fbf565b93604081015183811161018857846110d5918301610fbf565b93606082015184811161018857816110ee918401610fbf565b936080830151908111610188576104c59201611001565b1561110d5750565b60405162461bcd60e51b81526020600482015290819061113190602483019061047e565b0390fd5b919091825167ffffffffffffffff81116107835761115781610dc28454610684565b602080601f831160011461118857508190610ce19394955f92610ce55750508160011b915f199060031b1c19161790565b90601f1983169561119c855f5260205f2090565b925f905b8882106111be57505083600195969710610d2b57505050811b019055565b806001859682949686015181550195019301906111a0565b9060206104c592818152019061047e565b5f806020928381519101826108025af190611200610f16565b9115611253578151820190604083828401930312610188578083015167ffffffffffffffff9081811161018857838361123b92870101610fbf565b506040840151908111610188576104c5930101610fbf565b81519101fdfea2646970667358221220fdf3df2870e686a265f512d5ab0d7a15308d42e940a922380c5e3446cc05698764736f6c63430008180033","linkReferences":{}},"methodIdentifiers":{"MAX_ANSWER_LENGTH()":"fd3a8329","MAX_SUBMISSIONS()":"8e789683","bounties(uint256)":"dc2f8744","createBounty(string,string,uint256)":"2bfa7d60","finalizeWinner(uint256,uint256)":"5a7722f1","getBounty(uint256)":"ee8c4bbf","getSubmission(uint256,uint256)":"b7ed7071","judgeAll(uint256,bytes)":"d8964ee9","nextBountyId()":"fd14fad4","submitAnswer(uint256,string)":"01fa3bec"},"id":0}