{"abi":[{"type":"receive","stateMutability":"payable"},{"type":"function","name":"MAX_ANSWER_LENGTH","inputs":[],"outputs":[{"name":"","type":"uint256","internalType":"uint256"}],"stateMutability":"view"},{"type":"function","name":"MAX_SUBMISSIONS","inputs":[],"outputs":[{"name":"","type":"uint256","internalType":"uint256"}],"stateMutability":"view"},{"type":"function","name":"REVEAL_GRACE_PERIOD","inputs":[],"outputs":[{"name":"","type":"uint256","internalType":"uint256"}],"stateMutability":"view"},{"type":"function","name":"WALLET","inputs":[],"outputs":[{"name":"","type":"address","internalType":"contract IRitualWallet"}],"stateMutability":"view"},{"type":"function","name":"bounties","inputs":[{"name":"","type":"uint256","internalType":"uint256"}],"outputs":[{"name":"owner","type":"address","internalType":"address"},{"name":"title","type":"string","internalType":"string"},{"name":"rubric","type":"string","internalType":"string"},{"name":"reward","type":"uint256","internalType":"uint256"},{"name":"deadline","type":"uint256","internalType":"uint256"},{"name":"judged","type":"bool","internalType":"bool"},{"name":"finalized","type":"bool","internalType":"bool"},{"name":"aiReview","type":"bytes","internalType":"bytes"},{"name":"winnerIndex","type":"uint256","internalType":"uint256"},{"name":"revealDeadline","type":"uint256","internalType":"uint256"},{"name":"isEncrypted","type":"bool","internalType":"bool"},{"name":"executor","type":"address","internalType":"address"},{"name":"executorPublicKey","type":"bytes","internalType":"bytes"}],"stateMutability":"view"},{"type":"function","name":"computeCommitmentHash","inputs":[{"name":"answer","type":"string","internalType":"string"},{"name":"salt","type":"bytes32","internalType":"bytes32"},{"name":"submitter","type":"address","internalType":"address"},{"name":"bountyId","type":"uint256","internalType":"uint256"}],"outputs":[{"name":"","type":"bytes32","internalType":"bytes32"}],"stateMutability":"pure"},{"type":"function","name":"createBounty","inputs":[{"name":"title","type":"string","internalType":"string"},{"name":"rubric","type":"string","internalType":"string"},{"name":"deadline","type":"uint256","internalType":"uint256"}],"outputs":[{"name":"bountyId","type":"uint256","internalType":"uint256"}],"stateMutability":"payable"},{"type":"function","name":"createEncryptedBounty","inputs":[{"name":"title","type":"string","internalType":"string"},{"name":"rubric","type":"string","internalType":"string"},{"name":"deadline","type":"uint256","internalType":"uint256"},{"name":"executor","type":"address","internalType":"address"},{"name":"executorPublicKey","type":"bytes","internalType":"bytes"}],"outputs":[{"name":"bountyId","type":"uint256","internalType":"uint256"}],"stateMutability":"payable"},{"type":"function","name":"finalizeWinner","inputs":[{"name":"bountyId","type":"uint256","internalType":"uint256"},{"name":"winnerIndex","type":"uint256","internalType":"uint256"}],"outputs":[],"stateMutability":"nonpayable"},{"type":"function","name":"getBounty","inputs":[{"name":"bountyId","type":"uint256","internalType":"uint256"}],"outputs":[{"name":"owner","type":"address","internalType":"address"},{"name":"title","type":"string","internalType":"string"},{"name":"rubric","type":"string","internalType":"string"},{"name":"reward","type":"uint256","internalType":"uint256"},{"name":"deadline","type":"uint256","internalType":"uint256"},{"name":"judged","type":"bool","internalType":"bool"},{"name":"finalized","type":"bool","internalType":"bool"},{"name":"submissionCount","type":"uint256","internalType":"uint256"},{"name":"winnerIndex","type":"uint256","internalType":"uint256"},{"name":"aiReview","type":"bytes","internalType":"bytes"}],"stateMutability":"view"},{"type":"function","name":"getBountyMetadata","inputs":[{"name":"bountyId","type":"uint256","internalType":"uint256"}],"outputs":[{"name":"isEncrypted","type":"bool","internalType":"bool"},{"name":"executor","type":"address","internalType":"address"},{"name":"executorPublicKey","type":"bytes","internalType":"bytes"},{"name":"revealDeadline","type":"uint256","internalType":"uint256"},{"name":"commitmentCount","type":"uint256","internalType":"uint256"},{"name":"encryptedSubmissionCount","type":"uint256","internalType":"uint256"},{"name":"submissionCount","type":"uint256","internalType":"uint256"}],"stateMutability":"view"},{"type":"function","name":"getCommitment","inputs":[{"name":"bountyId","type":"uint256","internalType":"uint256"},{"name":"index","type":"uint256","internalType":"uint256"}],"outputs":[{"name":"submitter","type":"address","internalType":"address"},{"name":"commitment","type":"bytes32","internalType":"bytes32"},{"name":"revealed","type":"bool","internalType":"bool"}],"stateMutability":"view"},{"type":"function","name":"getCommitmentCount","inputs":[{"name":"bountyId","type":"uint256","internalType":"uint256"}],"outputs":[{"name":"","type":"uint256","internalType":"uint256"}],"stateMutability":"view"},{"type":"function","name":"getEncryptedSubmission","inputs":[{"name":"bountyId","type":"uint256","internalType":"uint256"},{"name":"index","type":"uint256","internalType":"uint256"}],"outputs":[{"name":"submitter","type":"address","internalType":"address"},{"name":"encryptedAnswer","type":"bytes","internalType":"bytes"},{"name":"answerHash","type":"string","internalType":"string"}],"stateMutability":"view"},{"type":"function","name":"getEncryptedSubmissionCount","inputs":[{"name":"bountyId","type":"uint256","internalType":"uint256"}],"outputs":[{"name":"","type":"uint256","internalType":"uint256"}],"stateMutability":"view"},{"type":"function","name":"getRevealDeadline","inputs":[{"name":"bountyId","type":"uint256","internalType":"uint256"}],"outputs":[{"name":"","type":"uint256","internalType":"uint256"}],"stateMutability":"view"},{"type":"function","name":"getSubmission","inputs":[{"name":"bountyId","type":"uint256","internalType":"uint256"},{"name":"index","type":"uint256","internalType":"uint256"}],"outputs":[{"name":"submitter","type":"address","internalType":"address"},{"name":"answer","type":"string","internalType":"string"}],"stateMutability":"view"},{"type":"function","name":"judgeAll","inputs":[{"name":"bountyId","type":"uint256","internalType":"uint256"},{"name":"llmInput","type":"bytes","internalType":"bytes"}],"outputs":[],"stateMutability":"nonpayable"},{"type":"function","name":"nextBountyId","inputs":[],"outputs":[{"name":"","type":"uint256","internalType":"uint256"}],"stateMutability":"view"},{"type":"function","name":"revealAnswer","inputs":[{"name":"bountyId","type":"uint256","internalType":"uint256"},{"name":"answer","type":"string","internalType":"string"},{"name":"salt","type":"bytes32","internalType":"bytes32"}],"outputs":[],"stateMutability":"nonpayable"},{"type":"function","name":"submitCommitment","inputs":[{"name":"bountyId","type":"uint256","internalType":"uint256"},{"name":"commitment","type":"bytes32","internalType":"bytes32"}],"outputs":[],"stateMutability":"nonpayable"},{"type":"function","name":"submitEncryptedAnswer","inputs":[{"name":"bountyId","type":"uint256","internalType":"uint256"},{"name":"encryptedAnswer","type":"bytes","internalType":"bytes"},{"name":"answerHash","type":"string","internalType":"string"}],"outputs":[],"stateMutability":"nonpayable"},{"type":"event","name":"AllAnswersJudged","inputs":[{"name":"bountyId","type":"uint256","indexed":true,"internalType":"uint256"},{"name":"aiReview","type":"bytes","indexed":false,"internalType":"bytes"}],"anonymous":false},{"type":"event","name":"AnswerRevealed","inputs":[{"name":"bountyId","type":"uint256","indexed":true,"internalType":"uint256"},{"name":"commitmentIndex","type":"uint256","indexed":true,"internalType":"uint256"},{"name":"submissionIndex","type":"uint256","indexed":true,"internalType":"uint256"},{"name":"submitter","type":"address","indexed":false,"internalType":"address"}],"anonymous":false},{"type":"event","name":"BountyCreated","inputs":[{"name":"bountyId","type":"uint256","indexed":true,"internalType":"uint256"},{"name":"owner","type":"address","indexed":true,"internalType":"address"},{"name":"title","type":"string","indexed":false,"internalType":"string"},{"name":"reward","type":"uint256","indexed":false,"internalType":"uint256"},{"name":"deadline","type":"uint256","indexed":false,"internalType":"uint256"},{"name":"isEncrypted","type":"bool","indexed":false,"internalType":"bool"}],"anonymous":false},{"type":"event","name":"CommitmentSubmitted","inputs":[{"name":"bountyId","type":"uint256","indexed":true,"internalType":"uint256"},{"name":"commitmentIndex","type":"uint256","indexed":true,"internalType":"uint256"},{"name":"submitter","type":"address","indexed":true,"internalType":"address"},{"name":"commitment","type":"bytes32","indexed":false,"internalType":"bytes32"}],"anonymous":false},{"type":"event","name":"EncryptedAnswerSubmitted","inputs":[{"name":"bountyId","type":"uint256","indexed":true,"internalType":"uint256"},{"name":"encryptedIndex","type":"uint256","indexed":true,"internalType":"uint256"},{"name":"submitter","type":"address","indexed":true,"internalType":"address"}],"anonymous":false},{"type":"event","name":"WinnerFinalized","inputs":[{"name":"bountyId","type":"uint256","indexed":true,"internalType":"uint256"},{"name":"winnerIndex","type":"uint256","indexed":true,"internalType":"uint256"},{"name":"winner","type":"address","indexed":true,"internalType":"address"},{"name":"reward","type":"uint256","indexed":false,"internalType":"uint256"}],"anonymous":false}],"bytecode":{"object":"0x6080806040523461001a5760015f556124ec908161001f8239f35b5f80fdfe6080604052600436101561001a575b3615610018575f80fd5b005b5f3560e01c80630dbbf40e1461017957806328879b11146101745780632bfa7d601461016f5780635a7722f11461016a5780635c21cd7c146101655780636d9cdbc6146101605780637164f0d61461015b5780638e789683146101565780639f2898df14610151578063acb942481461014c578063b7ed707114610147578063cec9778814610142578063d5198a711461013d578063d8964ee914610138578063d8b977eb14610133578063dc2f87441461012e578063de867a3614610129578063e6a3d9dc14610124578063ee8c4bbf1461011f578063f3edd74f1461011a578063fd14fad4146101155763fd3a83290361000e57611345565b611329565b611292565b6111a9565b61103d565b610fee565b610f39565b610d16565b610bbf565b6109a2565b610953565b6108d2565b610825565b61079c565b610781565b6106e9565b6106bb565b610627565b61043a565b610319565b6102fd565b6101af565b9181601f840112156101ab578235916001600160401b0383116101ab57602083818601950101116101ab57565b5f80fd5b346101ab5760603660031901126101ab576004356001600160401b036024358181116101ab576101e390369060040161017e565b6044929192359182116101ab576102cb6102046102d593369060040161017e565b9190865f52600160205261022560018060a01b0360405f2054161515611361565b600d610239885f52600160205260405f2090565b61024f61024a600b83015460ff1690565b6113a0565b61025e600482015442106113ec565b61027e60ff60058301546102748282161561142d565b60081c161561146a565b01926102bf845497610292600a8a106114aa565b61029d8715156114ed565b6102ab610800881115611538565b6102b3611584565b338152965b36916115dd565b602086015236916115dd565b6040830152611816565b33917f43ca44cfb2152a27c341403bf727b45fcdb6ef0d540567c8369a2cb6b0c749305f80a4005b346101ab575f3660031901126101ab576020604051610e108152f35b60603660031901126101ab576001600160401b036004358181116101ab5761034590369060040161017e565b6024929192359182116101ab57610436927f541f10a850a613f2600dd284ad80f2837a917f90e2127ec019ea9b3e1cd47fe46103886103e394369060040161017e565b92610410600b6044359361039d34151561194f565b5f549889976103ab896119a1565b5f90815589815260016020526040902080546001600160a01b03191633178155926103da8b88600187016119b4565b600284016119b4565b346003820155600481018590555f19600782015561040085611a70565b600a82015501805460ff19169055565b6104236040519283923397349185611a7f565b0390a36040519081529081906020820190565b0390f35b346101ab5760403660031901126101ab576004355f818152600160205260409020546001600160a01b0391602435916104769084161515611361565b805f52600160205261048f8360405f2054163314611af4565b7f2eb0120759ae6dd1505f3f092609ec7e75433fb2401ad648ebeb5bd4bd55e5b66105776104c5835f52600160205260405f2090565b94600586016104dc60ff8254610274828216611b33565b6105076008880191825488108015610591575b6104f890611b70565b805461ff001916610100179055565b8560078801558561051c600b89015460ff1690565b1561057c576003915061053561054391600d8a01611627565b50546001600160a01b031690565b965b01955f8754975516946105675f808080858b5af1610561611bcc565b50611bfb565b6040519081529081906020820190565b0390a4005b61053561058b91600393611bb3565b96610545565b50600d89015488106104ef565b5f5b8381106105af5750505f910152565b81810151838201526020016105a0565b906020916105d88151809281855285808601910161059e565b601f01601f1916010190565b939796959260c09592610613921515865260018060a01b0316602086015260e0604086015260e08501906105bf565b966060840152608083015260a08201520152565b346101ab5760203660031901126101ab576004355f8181526001602052604090205460ff916001600160a01b03916106629083161515611361565b5f52600160205261043660405f20600b810154600a820154600983015490600c600d850154936106a86008870154966106a16040518095819301610d9d565b0383610e42565b6040519889988260081c169116886105e4565b346101ab575f3660031901126101ab57602060405173532f0df0896f353d8c3dd8cc134e8129da2a39488152f35b346101ab5760403660031901126101ab57600435610743602435825f52600160205260018060a01b03926107248460405f2054161515611361565b5f526001602052600960405f200161073e81548310611c38565b611627565b509081541661043660ff60026001850154940154166040519384938491926040919493606084019560018060a01b0316845260208401521515910152565b346101ab575f3660031901126101ab576020604051600a8152f35b346101ab5760803660031901126101ab576004356001600160401b0381116101ab576107cc90369060040161017e565b60443591906001600160a01b03831683036101ab57610812610436936108046040519384926020840196606435926024359189611c74565b03601f198101835282610e42565b5190206040519081529081906020820190565b60a03660031901126101ab576001600160401b036004358181116101ab5761085190369060040161017e565b91906024358281116101ab5761086b90369060040161017e565b939091606435906001600160a01b03821682036101ab576084359485116101ab57610436956108a161056796369060040161017e565b95909460443593611d2d565b6001600160a01b0390911681526040602082018190526108cf929101906105bf565b90565b346101ab5760403660031901126101ab57600160043561094461092e602435835f5284602052848060a01b03936109108560405f2054161515611361565b5f5284602052600860405f200161092981548310611c38565b611bb3565b5091825416916106a16040518095819301610d9d565b610436604051928392836108ad565b346101ab5760203660031901126101ab576004355f81815260016020526040902054610989906001600160a01b03161515611361565b5f5260016020526020600d60405f200154604051908152f35b346101ab5760603660031901126101ab576004356024356001600160401b0381116101ab576109d590369060040161017e565b919060443592825f52600191602093836020526040610a0160018060a01b0360405f2054161515611361565b815f5284602052610a1b600460405f200154421015611e46565b610a2d825f52600160205260405f2090565b93600585015496610a4160ff89161561142d565b610a5360ff60089960081c161561146a565b610a70610a6b610a67600b89015460ff1690565b1590565b611e8b565b610a80600a870154421115611ecc565b610a8e6107d0831115611f10565b5f975f998860098901905b610aa7575b6100188b612086565b809a999a548c1015610bb757610abd8c82611627565b509b8c33610ae0610ad4835460018060a01b031690565b6001600160a01b031690565b149081610ba7575b50610afa578b019b5098999889610a99565b989a9050879950610b6d60026100189d610b5f88889796610b52610b909b9a8e9f7fa6c1a437bf2940a94dc2908c0cd27b51321af85dbc19c14673d4fc96232795919f8f916108049251958694850197339289611c74565b5190208583015414611f4e565b01805460ff19166001179055565b990190610b87825499610b7e6115a3565b338152946102b8565b90830152611f90565b51338152602090a45f808080808080808080610a9e565b6002015460ff161590508d610ae8565b899a50610a9e565b346101ab5760403660031901126101ab576004356024356001600160401b0381116101ab57610cfd6006610cf1610cde610c1e7fb51288ae628dca25614026175dc22a78631acc1a31f034c68c3fa241ca0fd05c95369060040161017e565b9390875f526001602052610c5860018060a01b03610c438160405f2054161515611361565b895f52600160205260405f2054163314611af4565b610ceb610ccf610cc0610cbb610c768c5f52600160205260405f2090565b946005860199610c8f60ff8c546102748282161561142d565b610c9f6004880154421015611e46565b600b87015460ff1615610d02576102b8600d880154151561211e565b612445565b6020808251830101910161222c565b509050819892969196156122ae565b805460ff19166001179055565b016116a7565b604051918291826122de565b0390a2005b610d11600888015415156120d2565b6102b8565b346101ab5760203660031901126101ab576004355f81815260016020526040902054610d4c906001600160a01b03161515611361565b5f5260016020526020600960405f200154604051908152f35b90600182811c92168015610d93575b6020831014610d7f57565b634e487b7160e01b5f52602260045260245ffd5b91607f1691610d74565b80545f9392610dab82610d65565b918282526020936001916001811690815f14610e0f5750600114610dd1575b5050505050565b90939495505f92919252835f2092845f945b838610610dfb57505050500101905f80808080610dca565b805485870183015294019385908201610de3565b60ff19168685015250505090151560051b010191505f80808080610dca565b634e487b7160e01b5f52604160045260245ffd5b90601f801991011681019081106001600160401b03821117610e6357604052565b610e2e565b90610e7c6106a19260405193848092610d9d565b565b999496610eeb6108cf9e9c97610f1a99610f2b9c9f9b958e610ed8610f019a99610eca608094610ef49a610ebc866101a09260018060a01b03169052565b8060208701528501906105bf565b9083820360408501526105bf565b986060820152015260a08d019015159052565b151560c08b0152565b88820360e08a01526105bf565b9761010087015261012086015261014085019015159052565b6001600160a01b0316610160830152565b6101808184039101526105bf565b346101ab5760203660031901126101ab576004355f52600160205260405f2060ff61043660018060a01b03808454169360405194610f8586610f7e8160018601610d9d565b0387610e42565b610f9160028301610e68565b926003830154906004840154906005850154610faf60068701610e68565b91600787015493600a88015495610fcd600c600b8b01549a01610e68565b996040519d8e9d8e958c60081c169b169960ff808860081c16971695610e7e565b346101ab5760203660031901126101ab576004355f81815260016020526040902054611024906001600160a01b03161515611361565b5f5260016020526020600a60405f200154604051908152f35b346101ab5760403660031901126101ab576004355f818152600160205260409020546024359190611078906001600160a01b03161515611361565b600961108c825f52600160205260405f2090565b61109b600482015442106113ec565b6110b160ff60058301546102748282161561142d565b6110ca6110c5610a67600b84015460ff1690565b6122ef565b01906111068254926110de600a8510612354565b6110e9851515612397565b6110f1611584565b338152908560208301525f60408301526123e3565b60405192835233927f321d5fdb70890967d189113617c8111202ccfaba27c48f140fbb3989bcbb0440908060208101610577565b96939895926111696108cf9b999693611177936101409060018060a01b03168b528060208c01528a01906105bf565b9088820360408a01526105bf565b9760608701526080860152151560a0850152151560c084015260e08301526101008201526101208184039101526105bf565b346101ab5760203660031901126101ab576004355f818152600160205260409020546001600160a01b0391906111e29083161515611361565b5f52600160205260405f2090815416610436600383015460048401549260058501546008860154906007870154926040519661122c886112258160018d01610d9d565b0389610e42565b611244600661123d60028c01610e68565b9a01610e68565b95604051998a9960ff808760081c169616948b61113a565b6001600160a01b0390911681526060602082018190526108cf939192611284918401906105bf565b9160408184039101526105bf565b346101ab576040806003193601126101ab576004359061043660026112ec602435855f52600160205260018060a01b03956112d387875f2054161515611361565b5f526001602052600d855f200161073e81548310611c38565b50938454169261131f815195611310876113098160018501610d9d565b0388610e42565b6106a183518095819301610d9d565b519384938461125c565b346101ab575f3660031901126101ab5760205f54604051908152f35b346101ab575f3660031901126101ab5760206040516107d08152f35b1561136857565b60405162461bcd60e51b815260206004820152601060248201526f189bdd5b9d1e481b9bdd08199bdd5b9960821b6044820152606490fd5b156113a757565b60405162461bcd60e51b815260206004820152601760248201527f6e6f7420616e20656e6372797074656420626f756e74790000000000000000006044820152606490fd5b156113f357565b60405162461bcd60e51b81526020600482015260126024820152711cdd589b5a5cdcda5bdb9cc818db1bdcd95960721b6044820152606490fd5b1561143457565b60405162461bcd60e51b815260206004820152600e60248201526d185b1c9958591e481a9d5919d95960921b6044820152606490fd5b1561147157565b60405162461bcd60e51b8152602060048201526011602482015270185b1c9958591e48199a5b985b1a5e9959607a1b6044820152606490fd5b156114b157565b60405162461bcd60e51b8152602060048201526014602482015273746f6f206d616e79207375626d697373696f6e7360601b6044820152606490fd5b156114f457565b606460405162461bcd60e51b815260206004820152602060248201527f656e6372797074656420616e737765722063616e6e6f7420626520656d7074796044820152fd5b1561153f57565b60405162461bcd60e51b815260206004820152601a60248201527f656e6372797074656420616e7377657220746f6f206c617267650000000000006044820152606490fd5b60405190606082018281106001600160401b03821117610e6357604052565b60405190604082018281106001600160401b03821117610e6357604052565b6001600160401b038111610e6357601f01601f191660200190565b9291926115e9826115c2565b916115f76040519384610e42565b8294818452818301116101ab578281602093845f960137010152565b634e487b7160e01b5f52603260045260245ffd5b8054821015611640575f52600360205f20910201905f90565b611613565b634e487b7160e01b5f525f60045260245ffd5b601f821161166557505050565b5f5260205f20906020601f840160051c8301931061169d575b601f0160051c01905b818110611692575050565b5f8155600101611687565b909150819061167e565b91909182516001600160401b038111610e63576116ce816116c88454610d65565b84611658565b602080601f831160011461170f575081906117009394955f92611704575b50508160011b915f199060031b1c19161790565b9055565b015190505f806116ec565b90601f19831695611723855f5260205f2090565b925f905b88821061175e57505083600195969710611746575b505050811b019055565b01515f1960f88460031b161c191690555f808061173c565b80600185968294968601518155019501930190611727565b91909182516001600160401b038111610e6357611797816116c88454610d65565b602080601f83116001146117c8575081906117009394955f926117045750508160011b915f199060031b1c19161790565b90601f198316956117dc855f5260205f2090565b925f905b8882106117fe5750508360019596971061174657505050811b019055565b806001859682949686015181550195019301906117e0565b908154600160401b811015610e635761183790600193600182018155611627565b92909261194a57815183546001600160a01b0319166001600160a01b039190911617835560018301906020808401518051926001600160401b038411610e635761188b846118858754610d65565b87611658565b602092601f85116001146118d2575050926118c683604094610e7c9897946002975f926117045750508160011b915f199060031b1c19161790565b90555b01519101611776565b929190601f198516906118e8875f5260205f2090565b945f915b8383106119335750505093610e7c97969360029693600193836040981061191b575b505050811b0190556118c9565b01515f1960f88460031b161c191690555f808061190e565b8486015187559586019594810194918101916118ec565b611645565b1561195657565b60405162461bcd60e51b815260206004820152600f60248201526e1c995dd85c99081c995c5d5a5c9959608a1b6044820152606490fd5b634e487b7160e01b5f52601160045260245ffd5b5f1981146119af5760010190565b61198d565b9092916001600160401b038111610e63576119d3816116c88454610d65565b5f601f8211600114611a0c5781906117009394955f92611a015750508160011b915f199060031b1c19161790565b013590505f806116ec565b601f19821694611a1f845f5260205f2090565b915f5b878110611a58575083600195969710611a3f57505050811b019055565b01355f19600384901b60f8161c191690555f808061173c565b90926020600181928686013581550194019101611a22565b90610e1082018092116119af57565b909360a0836060945f969897608086528160808701528386013785828286010152601f801991011683010195602083015260408201520152565b909360a083606094600196989760808652816080870152838601375f828286010152601f801991011683010195602083015260408201520152565b15611afb57565b60405162461bcd60e51b815260206004820152601060248201526f3737ba103137bab73a3c9037bbb732b960811b6044820152606490fd5b15611b3a57565b60405162461bcd60e51b815260206004820152600e60248201526d1b9bdd081a9d5919d959081e595d60921b6044820152606490fd5b15611b7757565b60405162461bcd60e51b81526020600482015260146024820152730d2dcecc2d8d2c840eed2dcdccae440d2dcc8caf60631b6044820152606490fd5b8054821015611640575f5260205f209060011b01905f90565b3d15611bf6573d90611bdd826115c2565b91611beb6040519384610e42565b82523d5f602084013e565b606090565b15611c0257565b60405162461bcd60e51b815260206004820152600e60248201526d1c185e5b595b9d0819985a5b195960921b6044820152606490fd5b15611c3f57565b60405162461bcd60e51b815260206004820152600d60248201526c0d2dcecc2d8d2c840d2dcc8caf609b1b6044820152606490fd5b826054969495939282370192835260601b6bffffffffffffffffffffffff1916602083015260348201520190565b15611ca957565b60405162461bcd60e51b815260206004820152601060248201526f34b73b30b634b21032bc32b1baba37b960811b6044820152606490fd5b15611ce857565b60405162461bcd60e51b815260206004820152601760248201527f6d697373696e67206578656375746f72207075626b65790000000000000000006044820152606490fd5b9197969095919392611d4034151561194f565b611d546001600160a01b0387161515611ca2565b611d5f821515611ce1565b5f5495611d6b876119a1565b5f558699611d81885f52600160205260405f2090565b80546001600160a01b0319163317815592611da08a89600187016119b4565b611dad91600285016119b4565b346003830155600482018590555f196007830155611dca85611a70565b600a830155600b8201805460ff19166001178155908154610100600160a81b03191660089190911b610100600160a81b0316179055600c0191611e0c926119b4565b60405191829133953490611e209385611ab9565b037f541f10a850a613f2600dd284ad80f2837a917f90e2127ec019ea9b3e1cd47fe491a3565b15611e4d57565b60405162461bcd60e51b815260206004820152601660248201527539bab136b4b9b9b4b7b7399039ba34b6361037b832b760511b6044820152606490fd5b15611e9257565b60405162461bcd60e51b815260206004820152601260248201527175736520656e6372797074656420666c6f7760701b6044820152606490fd5b15611ed357565b60405162461bcd60e51b81526020600482015260156024820152741c995d99585b081c195c9a5bd908195e1c1a5c9959605a1b6044820152606490fd5b15611f1757565b60405162461bcd60e51b815260206004820152600f60248201526e616e7377657220746f6f206c6f6e6760881b6044820152606490fd5b15611f5557565b60405162461bcd60e51b81526020600482015260136024820152720c6dedadad2e8dacadce840dad2e6dac2e8c6d606b1b6044820152606490fd5b91908254600160401b811015610e6357611fb290600194600182018155611bb3565b61194a57815181546001600160a01b0319166001600160a01b039190911617815560010190602080910151938451916001600160401b038311610e635761200383611ffd8654610d65565b86611658565b602091601f841160011461203557505081906117009394955f926117045750508160011b915f199060031b1c19161790565b95601f9291921984169661204c865f5260205f2090565b935f915b89831061206f575050508360019596971061174657505050811b019055565b838501518655948501949381019391810191612050565b1561208d57565b60405162461bcd60e51b815260206004820152601e60248201527f6e6f20756e72657665616c656420636f6d6d69746d656e7420666f756e6400006044820152606490fd5b156120d957565b60405162461bcd60e51b815260206004820152601760248201527f6e6f2072657665616c6564207375626d697373696f6e730000000000000000006044820152606490fd5b1561212557565b60405162461bcd60e51b815260206004820152601860248201527f6e6f20656e63727970746564207375626d697373696f6e7300000000000000006044820152606490fd5b81601f820112156101ab578051612180816115c2565b9261218e6040519485610e42565b818452602082840101116101ab576108cf916020808501910161059e565b9190916060818403126101ab57604051906001600160401b03906060830182811184821017610e6357604052829481518381116101ab57816121ef91840161216a565b845260208201518381116101ab578161220991840161216a565b602085015260408201519283116101ab57604092612227920161216a565b910152565b9060a0828203126101ab57815180151581036101ab57926020830151906001600160401b03918281116101ab578361226591860161216a565b9360408101518381116101ab578461227e91830161216a565b9360608201518481116101ab578161229791840161216a565b9360808301519081116101ab576108cf92016121ac565b156122b65750565b60405162461bcd60e51b8152602060048201529081906122da9060248301906105bf565b0390fd5b9060206108cf9281815201906105bf565b156122f657565b60405162461bcd60e51b815260206004820152603060248201527f757365207375626d6974456e63727970746564416e7377657220666f7220656e60448201526f6372797074656420626f756e7469657360801b6064820152608490fd5b1561235b57565b60405162461bcd60e51b8152602060048201526014602482015273746f6f206d616e7920636f6d6d69746d656e747360601b6044820152606490fd5b1561239e57565b60405162461bcd60e51b815260206004820152601a60248201527f636f6d6d69746d656e742063616e6e6f7420626520656d7074790000000000006044820152606490fd5b8054600160401b811015610e635761240091600182018155611627565b61194a57815181546001600160a01b0319166001600160a01b03919091161781556040906002906020840151600182015501910151151560ff80198354169116179055565b5f806020928381519101826108025af19061245e611bcc565b91156124b05781518201906040838284019303126101ab57808301516001600160401b03908181116101ab5783836124989287010161216a565b5060408401519081116101ab576108cf93010161216a565b81519101fdfea26469706673582212206ba918570ea539273b6fa5d3d7d16de6be65c8cee51322aed69bbf2db1d893e464736f6c63430008180033","linkReferences":{}},"methodIdentifiers":{"MAX_ANSWER_LENGTH()":"fd3a8329","MAX_SUBMISSIONS()":"8e789683","REVEAL_GRACE_PERIOD()":"28879b11","WALLET()":"6d9cdbc6","bounties(uint256)":"dc2f8744","computeCommitmentHash(string,bytes32,address,uint256)":"9f2898df","createBounty(string,string,uint256)":"2bfa7d60","createEncryptedBounty(string,string,uint256,address,bytes)":"acb94248","finalizeWinner(uint256,uint256)":"5a7722f1","getBounty(uint256)":"ee8c4bbf","getBountyMetadata(uint256)":"5c21cd7c","getCommitment(uint256,uint256)":"7164f0d6","getCommitmentCount(uint256)":"d8b977eb","getEncryptedSubmission(uint256,uint256)":"f3edd74f","getEncryptedSubmissionCount(uint256)":"cec97788","getRevealDeadline(uint256)":"de867a36","getSubmission(uint256,uint256)":"b7ed7071","judgeAll(uint256,bytes)":"d8964ee9","nextBountyId()":"fd14fad4","revealAnswer(uint256,string,bytes32)":"d5198a71","submitCommitment(uint256,bytes32)":"e6a3d9dc","submitEncryptedAnswer(uint256,bytes,string)":"0dbbf40e"},"id":1}